{
  "_format": "hh-sol-artifact-1",
  "contractName": "GameSkinNFT",
  "sourceName": "contracts/GameSkinNFT.sol",
  "abi": [
    {
      "inputs": [],
      "stateMutability": "nonpayable",
      "type": "constructor"
    },
    {
      "anonymous": false,
      "inputs": [
        {
          "indexed": true,
          "internalType": "address",
          "name": "owner",
          "type": "address"
        },
        {
          "indexed": true,
          "internalType": "address",
          "name": "approved",
          "type": "address"
        },
        {
          "indexed": true,
          "internalType": "uint256",
          "name": "tokenId",
          "type": "uint256"
        }
      ],
      "name": "Approval",
      "type": "event"
    },
    {
      "anonymous": false,
      "inputs": [
        {
          "indexed": true,
          "internalType": "address",
          "name": "owner",
          "type": "address"
        },
        {
          "indexed": true,
          "internalType": "address",
          "name": "operator",
          "type": "address"
        },
        {
          "indexed": false,
          "internalType": "bool",
          "name": "approved",
          "type": "bool"
        }
      ],
      "name": "ApprovalForAll",
      "type": "event"
    },
    {
      "anonymous": false,
      "inputs": [
        {
          "indexed": false,
          "internalType": "uint256",
          "name": "amount",
          "type": "uint256"
        }
      ],
      "name": "FundsWithdrawn",
      "type": "event"
    },
    {
      "anonymous": false,
      "inputs": [
        {
          "indexed": true,
          "internalType": "uint256",
          "name": "tokenId",
          "type": "uint256"
        }
      ],
      "name": "NFTBurned",
      "type": "event"
    },
    {
      "anonymous": false,
      "inputs": [
        {
          "indexed": true,
          "internalType": "uint256",
          "name": "tokenId",
          "type": "uint256"
        },
        {
          "indexed": false,
          "internalType": "uint256",
          "name": "price",
          "type": "uint256"
        }
      ],
      "name": "NFTListedForSale",
      "type": "event"
    },
    {
      "anonymous": false,
      "inputs": [
        {
          "indexed": true,
          "internalType": "uint256",
          "name": "tokenId",
          "type": "uint256"
        },
        {
          "indexed": false,
          "internalType": "string",
          "name": "tokenURI",
          "type": "string"
        },
        {
          "indexed": false,
          "internalType": "uint256",
          "name": "price",
          "type": "uint256"
        },
        {
          "indexed": false,
          "internalType": "uint256",
          "name": "quantity",
          "type": "uint256"
        }
      ],
      "name": "NFTMinted",
      "type": "event"
    },
    {
      "anonymous": false,
      "inputs": [
        {
          "indexed": true,
          "internalType": "uint256",
          "name": "tokenId",
          "type": "uint256"
        },
        {
          "indexed": true,
          "internalType": "address",
          "name": "buyer",
          "type": "address"
        },
        {
          "indexed": false,
          "internalType": "uint256",
          "name": "price",
          "type": "uint256"
        }
      ],
      "name": "NFTPurchased",
      "type": "event"
    },
    {
      "anonymous": false,
      "inputs": [
        {
          "indexed": true,
          "internalType": "uint256",
          "name": "tokenId",
          "type": "uint256"
        }
      ],
      "name": "NFTWithdrawnFromSale",
      "type": "event"
    },
    {
      "anonymous": false,
      "inputs": [
        {
          "indexed": true,
          "internalType": "address",
          "name": "previousOwner",
          "type": "address"
        },
        {
          "indexed": true,
          "internalType": "address",
          "name": "newOwner",
          "type": "address"
        }
      ],
      "name": "OwnershipTransferred",
      "type": "event"
    },
    {
      "anonymous": false,
      "inputs": [
        {
          "indexed": true,
          "internalType": "address",
          "name": "from",
          "type": "address"
        },
        {
          "indexed": true,
          "internalType": "address",
          "name": "to",
          "type": "address"
        },
        {
          "indexed": true,
          "internalType": "uint256",
          "name": "tokenId",
          "type": "uint256"
        }
      ],
      "name": "Transfer",
      "type": "event"
    },
    {
      "inputs": [],
      "name": "MAX_SUPPLY",
      "outputs": [
        {
          "internalType": "uint256",
          "name": "",
          "type": "uint256"
        }
      ],
      "stateMutability": "view",
      "type": "function"
    },
    {
      "inputs": [
        {
          "internalType": "address",
          "name": "to",
          "type": "address"
        },
        {
          "internalType": "uint256",
          "name": "tokenId",
          "type": "uint256"
        }
      ],
      "name": "approve",
      "outputs": [],
      "stateMutability": "nonpayable",
      "type": "function"
    },
    {
      "inputs": [
        {
          "internalType": "uint256",
          "name": "",
          "type": "uint256"
        }
      ],
      "name": "availableQuantities",
      "outputs": [
        {
          "internalType": "uint256",
          "name": "",
          "type": "uint256"
        }
      ],
      "stateMutability": "view",
      "type": "function"
    },
    {
      "inputs": [
        {
          "internalType": "address",
          "name": "owner",
          "type": "address"
        }
      ],
      "name": "balanceOf",
      "outputs": [
        {
          "internalType": "uint256",
          "name": "",
          "type": "uint256"
        }
      ],
      "stateMutability": "view",
      "type": "function"
    },
    {
      "inputs": [
        {
          "internalType": "uint256",
          "name": "tokenId",
          "type": "uint256"
        }
      ],
      "name": "burn",
      "outputs": [],
      "stateMutability": "nonpayable",
      "type": "function"
    },
    {
      "inputs": [
        {
          "internalType": "uint256",
          "name": "tokenId",
          "type": "uint256"
        }
      ],
      "name": "getApproved",
      "outputs": [
        {
          "internalType": "address",
          "name": "",
          "type": "address"
        }
      ],
      "stateMutability": "view",
      "type": "function"
    },
    {
      "inputs": [
        {
          "internalType": "address",
          "name": "owner",
          "type": "address"
        },
        {
          "internalType": "address",
          "name": "operator",
          "type": "address"
        }
      ],
      "name": "isApprovedForAll",
      "outputs": [
        {
          "internalType": "bool",
          "name": "",
          "type": "bool"
        }
      ],
      "stateMutability": "view",
      "type": "function"
    },
    {
      "inputs": [
        {
          "internalType": "uint256",
          "name": "",
          "type": "uint256"
        }
      ],
      "name": "isForSale",
      "outputs": [
        {
          "internalType": "bool",
          "name": "",
          "type": "bool"
        }
      ],
      "stateMutability": "view",
      "type": "function"
    },
    {
      "inputs": [
        {
          "internalType": "uint256",
          "name": "tokenId",
          "type": "uint256"
        },
        {
          "internalType": "uint256",
          "name": "price",
          "type": "uint256"
        }
      ],
      "name": "listNFTForSale",
      "outputs": [],
      "stateMutability": "nonpayable",
      "type": "function"
    },
    {
      "inputs": [
        {
          "internalType": "string",
          "name": "_tokenURI",
          "type": "string"
        },
        {
          "internalType": "uint256",
          "name": "quantity",
          "type": "uint256"
        },
        {
          "internalType": "uint256",
          "name": "price",
          "type": "uint256"
        }
      ],
      "name": "mintToContract",
      "outputs": [],
      "stateMutability": "nonpayable",
      "type": "function"
    },
    {
      "inputs": [],
      "name": "name",
      "outputs": [
        {
          "internalType": "string",
          "name": "",
          "type": "string"
        }
      ],
      "stateMutability": "view",
      "type": "function"
    },
    {
      "inputs": [],
      "name": "nextTokenId",
      "outputs": [
        {
          "internalType": "uint256",
          "name": "",
          "type": "uint256"
        }
      ],
      "stateMutability": "view",
      "type": "function"
    },
    {
      "inputs": [],
      "name": "owner",
      "outputs": [
        {
          "internalType": "address",
          "name": "",
          "type": "address"
        }
      ],
      "stateMutability": "view",
      "type": "function"
    },
    {
      "inputs": [
        {
          "internalType": "uint256",
          "name": "tokenId",
          "type": "uint256"
        }
      ],
      "name": "ownerOf",
      "outputs": [
        {
          "internalType": "address",
          "name": "",
          "type": "address"
        }
      ],
      "stateMutability": "view",
      "type": "function"
    },
    {
      "inputs": [
        {
          "internalType": "uint256",
          "name": "tokenId",
          "type": "uint256"
        }
      ],
      "name": "purchaseNFT",
      "outputs": [],
      "stateMutability": "payable",
      "type": "function"
    },
    {
      "inputs": [],
      "name": "renounceOwnership",
      "outputs": [],
      "stateMutability": "nonpayable",
      "type": "function"
    },
    {
      "inputs": [
        {
          "internalType": "uint256",
          "name": "tokenId",
          "type": "uint256"
        },
        {
          "internalType": "uint256",
          "name": "salePrice",
          "type": "uint256"
        }
      ],
      "name": "royaltyInfo",
      "outputs": [
        {
          "internalType": "address",
          "name": "",
          "type": "address"
        },
        {
          "internalType": "uint256",
          "name": "",
          "type": "uint256"
        }
      ],
      "stateMutability": "view",
      "type": "function"
    },
    {
      "inputs": [
        {
          "internalType": "address",
          "name": "from",
          "type": "address"
        },
        {
          "internalType": "address",
          "name": "to",
          "type": "address"
        },
        {
          "internalType": "uint256",
          "name": "tokenId",
          "type": "uint256"
        }
      ],
      "name": "safeTransferFrom",
      "outputs": [],
      "stateMutability": "nonpayable",
      "type": "function"
    },
    {
      "inputs": [
        {
          "internalType": "address",
          "name": "from",
          "type": "address"
        },
        {
          "internalType": "address",
          "name": "to",
          "type": "address"
        },
        {
          "internalType": "uint256",
          "name": "tokenId",
          "type": "uint256"
        },
        {
          "internalType": "bytes",
          "name": "data",
          "type": "bytes"
        }
      ],
      "name": "safeTransferFrom",
      "outputs": [],
      "stateMutability": "nonpayable",
      "type": "function"
    },
    {
      "inputs": [
        {
          "internalType": "address",
          "name": "operator",
          "type": "address"
        },
        {
          "internalType": "bool",
          "name": "approved",
          "type": "bool"
        }
      ],
      "name": "setApprovalForAll",
      "outputs": [],
      "stateMutability": "nonpayable",
      "type": "function"
    },
    {
      "inputs": [
        {
          "internalType": "bytes4",
          "name": "interfaceId",
          "type": "bytes4"
        }
      ],
      "name": "supportsInterface",
      "outputs": [
        {
          "internalType": "bool",
          "name": "",
          "type": "bool"
        }
      ],
      "stateMutability": "view",
      "type": "function"
    },
    {
      "inputs": [],
      "name": "symbol",
      "outputs": [
        {
          "internalType": "string",
          "name": "",
          "type": "string"
        }
      ],
      "stateMutability": "view",
      "type": "function"
    },
    {
      "inputs": [
        {
          "internalType": "uint256",
          "name": "",
          "type": "uint256"
        }
      ],
      "name": "tokenPrices",
      "outputs": [
        {
          "internalType": "uint256",
          "name": "",
          "type": "uint256"
        }
      ],
      "stateMutability": "view",
      "type": "function"
    },
    {
      "inputs": [
        {
          "internalType": "uint256",
          "name": "tokenId",
          "type": "uint256"
        }
      ],
      "name": "tokenURI",
      "outputs": [
        {
          "internalType": "string",
          "name": "",
          "type": "string"
        }
      ],
      "stateMutability": "view",
      "type": "function"
    },
    {
      "inputs": [],
      "name": "totalSupply",
      "outputs": [
        {
          "internalType": "uint256",
          "name": "",
          "type": "uint256"
        }
      ],
      "stateMutability": "view",
      "type": "function"
    },
    {
      "inputs": [
        {
          "internalType": "address",
          "name": "from",
          "type": "address"
        },
        {
          "internalType": "address",
          "name": "to",
          "type": "address"
        },
        {
          "internalType": "uint256",
          "name": "tokenId",
          "type": "uint256"
        }
      ],
      "name": "transferFrom",
      "outputs": [],
      "stateMutability": "nonpayable",
      "type": "function"
    },
    {
      "inputs": [
        {
          "internalType": "address",
          "name": "newOwner",
          "type": "address"
        }
      ],
      "name": "transferOwnership",
      "outputs": [],
      "stateMutability": "nonpayable",
      "type": "function"
    },
    {
      "inputs": [
        {
          "internalType": "address",
          "name": "owner",
          "type": "address"
        }
      ],
      "name": "walletOfOwner",
      "outputs": [
        {
          "internalType": "uint256[]",
          "name": "",
          "type": "uint256[]"
        }
      ],
      "stateMutability": "view",
      "type": "function"
    },
    {
      "inputs": [],
      "name": "withdrawFunds",
      "outputs": [],
      "stateMutability": "nonpayable",
      "type": "function"
    },
    {
      "inputs": [
        {
          "internalType": "uint256",
          "name": "tokenId",
          "type": "uint256"
        }
      ],
      "name": "withdrawNFTFromSale",
      "outputs": [],
      "stateMutability": "nonpayable",
      "type": "function"
    }
  ],
  "bytecode": "0x60806040523480156200001157600080fd5b506040518060400160405280600881526020016723b0b6b2a9b5b4b760c11b8152506040518060400160405280600381526020016223a9a760e91b8152508160009081620000609190620002b6565b5060016200006f8282620002b6565b5050506200008c62000086620000b660201b60201c565b620000ba565b6001600955620000b0620000a86008546001600160a01b031690565b60de6200010c565b62000382565b3390565b600880546001600160a01b038381166001600160a01b0319831681179093556040519116919082907f8be0079c531659141344cd1fd0a4f28419497f9722a3daafe3b4186f6b6457e090600090a35050565b6127106001600160601b0382161115620001805760405162461bcd60e51b815260206004820152602a60248201527f455243323938313a20726f79616c7479206665652077696c6c206578636565646044820152692073616c65507269636560b01b60648201526084015b60405180910390fd5b6001600160a01b038216620001d85760405162461bcd60e51b815260206004820152601960248201527f455243323938313a20696e76616c696420726563656976657200000000000000604482015260640162000177565b604080518082019091526001600160a01b039092168083526001600160601b039091166020909201829052600160a01b90910217600655565b634e487b7160e01b600052604160045260246000fd5b600181811c908216806200023c57607f821691505b6020821081036200025d57634e487b7160e01b600052602260045260246000fd5b50919050565b601f821115620002b157600081815260208120601f850160051c810160208610156200028c5750805b601f850160051c820191505b81811015620002ad5782815560010162000298565b5050505b505050565b81516001600160401b03811115620002d257620002d262000211565b620002ea81620002e3845462000227565b8462000263565b602080601f831160018114620003225760008415620003095750858301515b600019600386901b1c1916600185901b178555620002ad565b600085815260208120601f198616915b82811015620003535788860151825594840194600190910190840162000332565b5085821015620003725787850151600019600388901b60f8161c191681555b5050505050600190811b01905550565b6122da80620003926000396000f3fe6080604052600436106101cd5760003560e01c8063715018a6116100f7578063b88d4fde11610095578063e5afe3e611610064578063e5afe3e61461053a578063e985e9c514610567578063f2fde38b14610587578063fbd98716146105a757600080fd5b8063b88d4fde146104ba578063c87b56dd146104da578063d6e2945a146104fa578063dc7c54811461051a57600080fd5b80638da5cb5b116100d15780638da5cb5b1461044757806395d89b4114610465578063a22cb4651461047a578063b2733b391461049a57600080fd5b8063715018a6146103ec57806375794a3c146104015780638546d0021461041757600080fd5b806324600fc31161016f57806342966c681161013e57806342966c681461035f578063438b63001461037f5780636352211e146103ac57806370a08231146103cc57600080fd5b806324600fc3146102d55780632a55205a146102ea57806332cb6b0c1461032957806342842e0e1461033f57600080fd5b8063095ea7b3116101ab578063095ea7b314610261578063150bde031461028357806318160ddd1461029657806323b872dd146102b557600080fd5b806301ffc9a7146101d257806306fdde0314610207578063081812fc14610229575b600080fd5b3480156101de57600080fd5b506101f26101ed366004611bb1565b6105d4565b60405190151581526020015b60405180910390f35b34801561021357600080fd5b5061021c6105e5565b6040516101fe9190611c1b565b34801561023557600080fd5b50610249610244366004611c2e565b610677565b6040516001600160a01b0390911681526020016101fe565b34801561026d57600080fd5b5061028161027c366004611c63565b61069e565b005b610281610291366004611c2e565b6107b8565b3480156102a257600080fd5b50600f545b6040519081526020016101fe565b3480156102c157600080fd5b506102816102d0366004611c8d565b6109a7565b3480156102e157600080fd5b506102816109d8565b3480156102f657600080fd5b5061030a610305366004611cc9565b610abb565b604080516001600160a01b0390931683526020830191909152016101fe565b34801561033557600080fd5b506102a761271081565b34801561034b57600080fd5b5061028161035a366004611c8d565b610b67565b34801561036b57600080fd5b5061028161037a366004611c2e565b610b82565b34801561038b57600080fd5b5061039f61039a366004611ceb565b610bfb565b6040516101fe9190611d06565b3480156103b857600080fd5b506102496103c7366004611c2e565b610cc8565b3480156103d857600080fd5b506102a76103e7366004611ceb565b610d28565b3480156103f857600080fd5b50610281610dae565b34801561040d57600080fd5b506102a7600a5481565b34801561042357600080fd5b506101f2610432366004611c2e565b600e6020526000908152604090205460ff1681565b34801561045357600080fd5b506008546001600160a01b0316610249565b34801561047157600080fd5b5061021c610dc0565b34801561048657600080fd5b50610281610495366004611d4a565b610dcf565b3480156104a657600080fd5b506102816104b5366004611cc9565b610dde565b3480156104c657600080fd5b506102816104d5366004611e12565b610f08565b3480156104e657600080fd5b5061021c6104f5366004611c2e565b610f40565b34801561050657600080fd5b50610281610515366004611c2e565b611005565b34801561052657600080fd5b50610281610535366004611e8e565b611134565b34801561054657600080fd5b506102a7610555366004611c2e565b600d6020526000908152604090205481565b34801561057357600080fd5b506101f2610582366004611ef0565b61129e565b34801561059357600080fd5b506102816105a2366004611ceb565b6112cc565b3480156105b357600080fd5b506102a76105c2366004611c2e565b600c6020526000908152604090205481565b60006105df82611342565b92915050565b6060600080546105f490611f23565b80601f016020809104026020016040519081016040528092919081815260200182805461062090611f23565b801561066d5780601f106106425761010080835404028352916020019161066d565b820191906000526020600020905b81548152906001019060200180831161065057829003601f168201915b5050505050905090565b600061068282611367565b506000908152600460205260409020546001600160a01b031690565b60006106a982610cc8565b9050806001600160a01b0316836001600160a01b03160361071b5760405162461bcd60e51b815260206004820152602160248201527f4552433732313a20617070726f76616c20746f2063757272656e74206f776e656044820152603960f91b60648201526084015b60405180910390fd5b336001600160a01b03821614806107375750610737813361129e565b6107a95760405162461bcd60e51b815260206004820152603d60248201527f4552433732313a20617070726f76652063616c6c6572206973206e6f7420746f60448201527f6b656e206f776e6572206f7220617070726f76656420666f7220616c6c0000006064820152608401610712565b6107b383836113b7565b505050565b6107c0611425565b6000818152600e602052604090205460ff1661081e5760405162461bcd60e51b815260206004820152601e60248201527f4e4654206e6f7420617661696c61626c6520666f7220707572636861736500006044820152606401610712565b6000818152600d60205260409020543410156108735760405162461bcd60e51b8152602060048201526014602482015273125b9cdd59999a58da595b9d081c185e5b595b9d60621b6044820152606401610712565b3061087d82610cc8565b6001600160a01b0316146108d35760405162461bcd60e51b815260206004820152601960248201527f4e4654206e6f74206f776e656420627920636f6e7472616374000000000000006044820152606401610712565b6108de30338361147e565b6008546040516001600160a01b03909116903480156108fc02916000818181858888f19350505050158015610917573d6000803e3d6000fd5b506000818152600c6020526040812080549161093283611f73565b90915550506000818152600c60205260408120549003610963576000818152600e60205260409020805460ff191690555b604051348152339082907fad546cba5af920bc2c64678bbd69f3d8965ac26d1b82f7ebf6f098aaa83352829060200160405180910390a36109a46001600955565b50565b6109b133826115e2565b6109cd5760405162461bcd60e51b815260040161071290611f8a565b6107b383838361147e565b6109e0611641565b6109e8611425565b4780610a405760405162461bcd60e51b815260206004820152602160248201527f4e6f2066756e647320617661696c61626c6520666f72207769746864726177616044820152601b60fa1b6064820152608401610712565b6008546040516001600160a01b039091169082156108fc029083906000818181858888f19350505050158015610a7a573d6000803e3d6000fd5b506040518181527f4a37b25aab49761ecf63117fe82b98d750917451133cf797507bc9fb5b96044a9060200160405180910390a150610ab96001600955565b565b60008281526007602090815260408083208151808301909252546001600160a01b038116808352600160a01b9091046001600160601b0316928201929092528291610b305750604080518082019091526006546001600160a01b0381168252600160a01b90046001600160601b031660208201525b602081015160009061271090610b4f906001600160601b031687611fd7565b610b599190611fee565b915196919550909350505050565b6107b383838360405180602001604052806000815250610f08565b610b8a611641565b610b938161169b565b610baf5760405162461bcd60e51b815260040161071290612010565b610bb8816116b8565b600f8054906000610bc883611f73565b909155505060405181907f3c176691ca154a2f6fe978a2a633a33ee77dbe2902e67a75400720845a4b2ce190600090a250565b60606000610c0883610d28565b905060008167ffffffffffffffff811115610c2557610c25611d86565b604051908082528060200260200182016040528015610c4e578160200160208202803683370190505b5090506000805b600a54811015610cbe57856001600160a01b0316610c7282610cc8565b6001600160a01b031603610cac5780838381518110610c9357610c9361203e565b602090810291909101015281610ca881612054565b9250505b80610cb681612054565b915050610c55565b5090949350505050565b6000818152600260205260408120546001600160a01b0316806105df5760405162461bcd60e51b8152602060048201526018602482015277115490cdcc8c4e881a5b9d985b1a59081d1bdad95b88125160421b6044820152606401610712565b60006001600160a01b038216610d925760405162461bcd60e51b815260206004820152602960248201527f4552433732313a2061646472657373207a65726f206973206e6f7420612076616044820152683634b21037bbb732b960b91b6064820152608401610712565b506001600160a01b031660009081526003602052604090205490565b610db6611641565b610ab9600061174d565b6060600180546105f490611f23565b610dda33838361179f565b5050565b33610de883610cc8565b6001600160a01b031614610e505760405162461bcd60e51b815260206004820152602960248201527f4f6e6c7920746865206f776e65722063616e206c6973742074686973204e465460448201526820666f722073616c6560b81b6064820152608401610712565b60008111610ea05760405162461bcd60e51b815260206004820152601c60248201527f5072696365206d7573742062652067726561746572207468616e2030000000006044820152606401610712565b610eab33308461147e565b6000828152600d60209081526040808320849055600e825291829020805460ff19166001179055905182815283917fb969b31d52b858933f94bdced63814f41ae2fd801a036935359ab27bc095d579910160405180910390a25050565b610f1233836115e2565b610f2e5760405162461bcd60e51b815260040161071290611f8a565b610f3a8484848461186d565b50505050565b6060610f4b8261169b565b610f675760405162461bcd60e51b815260040161071290612010565b6000828152600b602052604090208054610f8090611f23565b80601f0160208091040260200160405190810160405280929190818152602001828054610fac90611f23565b8015610ff95780601f10610fce57610100808354040283529160200191610ff9565b820191906000526020600020905b815481529060010190602001808311610fdc57829003601f168201915b50505050509050919050565b3061100f82610cc8565b6001600160a01b0316146110655760405162461bcd60e51b815260206004820152601760248201527f4e4654206e6f74206c697374656420666f722073616c650000000000000000006044820152606401610712565b6008546001600160a01b031633146110e55760405162461bcd60e51b815260206004820152603760248201527f4f6e6c792074686520636f6e7472616374206f776e65722063616e207769746860448201527f647261772074686973204e46542066726f6d2073616c650000000000000000006064820152608401610712565b6000818152600e60205260409020805460ff1916905561110630338361147e565b60405181907f5a4e7b1edacc643dd81509e9a1eb256e3cde522cb3e0fa3f1688e81b25a03d2590600090a250565b61113c611641565b61271082600a5461114d919061206d565b11156111905760405162461bcd60e51b815260206004820152601260248201527145786365656473206d617820737570706c7960701b6044820152606401610712565b60008351116111d55760405162461bcd60e51b8152602060048201526011602482015270496e76616c696420746f6b656e2055524960781b6044820152606401610712565b60005b82811015610f3a57600a546111ed30826118a0565b6111f78186611a0d565b6000818152600c60209081526040808320879055600d8252808320869055600e9091528120805460ff19166001179055600a80549161123583612054565b9091555050600f805490600061124a83612054565b9190505550807f464de779c70fcdc47fcb3773c2b697c082d278cad672abba4f777fa43ab5dde486858760405161128393929190612080565b60405180910390a2508061129681612054565b9150506111d8565b6001600160a01b03918216600090815260056020908152604080832093909416825291909152205460ff1690565b6112d4611641565b6001600160a01b0381166113395760405162461bcd60e51b815260206004820152602660248201527f4f776e61626c653a206e6577206f776e657220697320746865207a65726f206160448201526564647265737360d01b6064820152608401610712565b6109a48161174d565b60006001600160e01b0319821663152a902d60e11b14806105df57506105df82611a4a565b6113708161169b565b6109a45760405162461bcd60e51b8152602060048201526018602482015277115490cdcc8c4e881a5b9d985b1a59081d1bdad95b88125160421b6044820152606401610712565b600081815260046020526040902080546001600160a01b0319166001600160a01b03841690811790915581906113ec82610cc8565b6001600160a01b03167f8c5be1e5ebec7d5bd14f71427d1e84f3dd0314c0f7b2291e5b200ac8c7c3b92560405160405180910390a45050565b6002600954036114775760405162461bcd60e51b815260206004820152601f60248201527f5265656e7472616e637947756172643a207265656e7472616e742063616c6c006044820152606401610712565b6002600955565b826001600160a01b031661149182610cc8565b6001600160a01b0316146114b75760405162461bcd60e51b8152600401610712906120a5565b6001600160a01b0382166115195760405162461bcd60e51b8152602060048201526024808201527f4552433732313a207472616e7366657220746f20746865207a65726f206164646044820152637265737360e01b6064820152608401610712565b826001600160a01b031661152c82610cc8565b6001600160a01b0316146115525760405162461bcd60e51b8152600401610712906120a5565b600081815260046020908152604080832080546001600160a01b03199081169091556001600160a01b0387811680865260038552838620805460001901905590871680865283862080546001019055868652600290945282852080549092168417909155905184937fddf252ad1be2c89b69c2b068fc378daa952ba7f163c4a11628f55a4df523b3ef91a4505050565b6000806115ee83610cc8565b9050806001600160a01b0316846001600160a01b031614806116155750611615818561129e565b806116395750836001600160a01b031661162e84610677565b6001600160a01b0316145b949350505050565b6008546001600160a01b03163314610ab95760405162461bcd60e51b815260206004820181905260248201527f4f776e61626c653a2063616c6c6572206973206e6f7420746865206f776e65726044820152606401610712565b6000908152600260205260409020546001600160a01b0316151590565b60006116c382610cc8565b90506116ce82610cc8565b600083815260046020908152604080832080546001600160a01b03199081169091556001600160a01b0385168085526003845282852080546000190190558785526002909352818420805490911690555192935084927fddf252ad1be2c89b69c2b068fc378daa952ba7f163c4a11628f55a4df523b3ef908390a45050565b600880546001600160a01b038381166001600160a01b0319831681179093556040519116919082907f8be0079c531659141344cd1fd0a4f28419497f9722a3daafe3b4186f6b6457e090600090a35050565b816001600160a01b0316836001600160a01b0316036118005760405162461bcd60e51b815260206004820152601960248201527f4552433732313a20617070726f766520746f2063616c6c6572000000000000006044820152606401610712565b6001600160a01b03838116600081815260056020908152604080832094871680845294825291829020805460ff191686151590811790915591519182527f17307eab39ab6107e8899845ad3d59bd9653f200f220920489ca2b5937696c31910160405180910390a3505050565b61187884848461147e565b61188484848484611a9a565b610f3a5760405162461bcd60e51b8152600401610712906120ea565b6001600160a01b0382166118f65760405162461bcd60e51b815260206004820181905260248201527f4552433732313a206d696e7420746f20746865207a65726f20616464726573736044820152606401610712565b6118ff8161169b565b1561194c5760405162461bcd60e51b815260206004820152601c60248201527f4552433732313a20746f6b656e20616c7265616479206d696e746564000000006044820152606401610712565b6119558161169b565b156119a25760405162461bcd60e51b815260206004820152601c60248201527f4552433732313a20746f6b656e20616c7265616479206d696e746564000000006044820152606401610712565b6001600160a01b038216600081815260036020908152604080832080546001019055848352600290915280822080546001600160a01b0319168417905551839291907fddf252ad1be2c89b69c2b068fc378daa952ba7f163c4a11628f55a4df523b3ef908290a45050565b611a168261169b565b611a325760405162461bcd60e51b815260040161071290612010565b6000828152600b602052604090206107b3828261218a565b60006001600160e01b031982166380ac58cd60e01b1480611a7b57506001600160e01b03198216635b5e139f60e01b145b806105df57506301ffc9a760e01b6001600160e01b03198316146105df565b60006001600160a01b0384163b15611b9057604051630a85bd0160e11b81526001600160a01b0385169063150b7a0290611ade90339089908890889060040161224a565b6020604051808303816000875af1925050508015611b19575060408051601f3d908101601f19168201909252611b1691810190612287565b60015b611b76573d808015611b47576040519150601f19603f3d011682016040523d82523d6000602084013e611b4c565b606091505b508051600003611b6e5760405162461bcd60e51b8152600401610712906120ea565b805181602001fd5b6001600160e01b031916630a85bd0160e11b149050611639565b506001949350505050565b6001600160e01b0319811681146109a457600080fd5b600060208284031215611bc357600080fd5b8135611bce81611b9b565b9392505050565b6000815180845260005b81811015611bfb57602081850181015186830182015201611bdf565b506000602082860101526020601f19601f83011685010191505092915050565b602081526000611bce6020830184611bd5565b600060208284031215611c4057600080fd5b5035919050565b80356001600160a01b0381168114611c5e57600080fd5b919050565b60008060408385031215611c7657600080fd5b611c7f83611c47565b946020939093013593505050565b600080600060608486031215611ca257600080fd5b611cab84611c47565b9250611cb960208501611c47565b9150604084013590509250925092565b60008060408385031215611cdc57600080fd5b50508035926020909101359150565b600060208284031215611cfd57600080fd5b611bce82611c47565b6020808252825182820181905260009190848201906040850190845b81811015611d3e57835183529284019291840191600101611d22565b50909695505050505050565b60008060408385031215611d5d57600080fd5b611d6683611c47565b915060208301358015158114611d7b57600080fd5b809150509250929050565b634e487b7160e01b600052604160045260246000fd5b600067ffffffffffffffff80841115611db757611db7611d86565b604051601f8501601f19908116603f01168101908282118183101715611ddf57611ddf611d86565b81604052809350858152868686011115611df857600080fd5b858560208301376000602087830101525050509392505050565b60008060008060808587031215611e2857600080fd5b611e3185611c47565b9350611e3f60208601611c47565b925060408501359150606085013567ffffffffffffffff811115611e6257600080fd5b8501601f81018713611e7357600080fd5b611e8287823560208401611d9c565b91505092959194509250565b600080600060608486031215611ea357600080fd5b833567ffffffffffffffff811115611eba57600080fd5b8401601f81018613611ecb57600080fd5b611eda86823560208401611d9c565b9660208601359650604090950135949350505050565b60008060408385031215611f0357600080fd5b611f0c83611c47565b9150611f1a60208401611c47565b90509250929050565b600181811c90821680611f3757607f821691505b602082108103611f5757634e487b7160e01b600052602260045260246000fd5b50919050565b634e487b7160e01b600052601160045260246000fd5b600081611f8257611f82611f5d565b506000190190565b6020808252602d908201527f4552433732313a2063616c6c6572206973206e6f7420746f6b656e206f776e6560408201526c1c881bdc88185c1c1c9bdd9959609a1b606082015260800190565b80820281158282048414176105df576105df611f5d565b60008261200b57634e487b7160e01b600052601260045260246000fd5b500490565b602080825260149082015273151bdad95b88191bd95cc81b9bdd08195e1a5cdd60621b604082015260600190565b634e487b7160e01b600052603260045260246000fd5b60006001820161206657612066611f5d565b5060010190565b808201808211156105df576105df611f5d565b6060815260006120936060830186611bd5565b60208301949094525060400152919050565b60208082526025908201527f4552433732313a207472616e736665722066726f6d20696e636f72726563742060408201526437bbb732b960d91b606082015260800190565b60208082526032908201527f4552433732313a207472616e7366657220746f206e6f6e20455243373231526560408201527131b2b4bb32b91034b6b83632b6b2b73a32b960711b606082015260800190565b601f8211156107b357600081815260208120601f850160051c810160208610156121635750805b601f850160051c820191505b818110156121825782815560010161216f565b505050505050565b815167ffffffffffffffff8111156121a4576121a4611d86565b6121b8816121b28454611f23565b8461213c565b602080601f8311600181146121ed57600084156121d55750858301515b600019600386901b1c1916600185901b178555612182565b600085815260208120601f198616915b8281101561221c578886015182559484019460019091019084016121fd565b508582101561223a5787850151600019600388901b60f8161c191681555b5050505050600190811b01905550565b6001600160a01b038581168252841660208201526040810183905260806060820181905260009061227d90830184611bd5565b9695505050505050565b60006020828403121561229957600080fd5b8151611bce81611b9b56fea26469706673582212205827a3624afaa9804057b97629e7b90f03e37700a5caaae2faddd56c393e066964736f6c63430008140033",
  "linkReferences": {},
  "deployedLinkReferences": {}
}